:020000040000FA
:060000000A128A11FC2F18
:100D7E008312031308080139080083120313080CA9
:100D8E0001390800831603178901831603138601A0
:100D9E0008000A128A11C9260A128A110A128A1129
:100DAE00F2260A128A110A128A110028EB2E01303D
:100DBE00F0020030031CF103F102C730F200E72EFF
:100DCE00F20BE62EEA2EEB2E70087104031DF02EA8
:100DDE00F12EDE2E0800F501D02F0A128A11BF2641
:100DEE000A128A11013A031DFD2EFE2E012FF50166
:100DFE00F50AD02F0A128A11C4260A128A11013A54
:100E0E00031D0A2F0B2FD02F0630F3007308F500A9
:100E1E00D02F831203138615E830F0000330F10053
:100E2E000A128A11DD260A128A1183120313861101
:100E3E000230F3007308F500D02F8312031306144B
:100E4E00E830F0000330F1000A128A11DD260A1292
:100E5E008A118312031306100330F3007308F50092
:100E6E00D02F831203138614E830F0000330F10004
:100E7E000A128A11DD260A128A11831203138610B2
:100E8E000430F3007308F500D02F831203130615F8
:100E9E00E830F0000330F1000A128A11DD260A1242
:100EAE008A118312031306110530F3007308F5003F
:100EBE00D02F831203138615E830F0000330F100B3
:100ECE000A128A11DD260A128A1183120313861161
:100EDE00F22E831203138615E830F0000330F10072
:100EEE000A128A11DD260A128A1183120313861141
:100EFE000730F3007308F500D02F83120313061585
:100F0E00E830F0000330F1000A128A11DD260A12D1
:100F1E008A118312031306110830F3007308F500CB
:100F2E00D02F831203138614E830F0000330F10043
:100F3E000A128A11DD260A128A11831203138610F1
:100F4E000930F3007308F500D02F83120313061433
:100F5E00E830F0000330F1000A128A11DD260A1281
:100F6E008A118312031306100A30F3007308F5007A
:100F7E00D02F831203138615E830F0000330F100F2
:100F8E000A128A11DD260A128A11831203138611A0
:100F9E00F22E7508F300F4017408003A0319D82FE5
:100FAE00D02F7308003A0319F42E013A0319102FAB
:100FBE00033A0319242F013A0319382F073A03195C
:100FCE004C2F013A0319602F033A0319702F013A7F
:100FDE000319842F0F3A0319982F013A0319AC2FD6
:100FEE00033A0319C02FD02F080083010A128A1169
:020FFE00D02EF3
:04400E00D420FF3F7C
:00000001FF
