:020000040000FA
:060000000A128A11FC2F18
:100EB80083160313880183120313880108000A129A
:100EC8008A115C270A128A110A128A1187270A12C4
:100ED8008A110A128A1100287F2F0130F00200308F
:100EE800031CF103F102C730F2007A2FF20B792FBD
:100EF8007D2F7E2F7F2F70087104031D842F852F6F
:100F0800712F862F0800F501E02FE02FF501F50A73
:100F1800E02F831203138817B830F0000B30F1006C
:100F28000A128A1170270A128A118312031388136E
:100F38000230F3007308F500E02F83120313881BB7
:100F4800A62FA72FA92F0816A92FB830F0000B300D
:100F5800F1000A128A1170270A128A1183120313E8
:100F680008120330F3007308F500E02F831203130F
:100F78008816B830F0000B30F1000A128A11702779
:100F88000A128A118312031388120430F3007308BB
:100F9800F500E02F831203130817B830F0000B3068
:100FA800F1000A128A1170270A128A118312031398
:100FB8000813F501E02FE02F7508F300F401740819
:100FC800003A0319E82FE02F7308003A03198A2F13
:100FD800013A03198D2F033A0319A12F013A031976
:100FE800BA2F073A0319CE2FE02FE02FE02F080081
:080FF80083010A128A11632F24
:04400E00D4E0FFFFFC
:00000001FF
